:020000040800F2
:100000009008002061020008C1570008E140000884
:1000100000000000000000000000000000000000E0
:10002000000000000000000000000000C7570008AA
:100030000000000000000000C5570008A95B000890
:100040007302000800000000730200087302000839
:1000500073020008730200087302000873020008AC
:100060000000000073020008730200087302000819
:100070007302000873020008730200080000000009
:10008000730200080000000000000000B55B0008DB
:1000900000000000730200087302000873020008E9
:1000A000E54000087302000873020008D56E0008DE
:1000B00073020008000000000000000000000000C3
:1000C00000F002F800F0BDF80CA030C80838241881
:1000D0002D18671EA246AB4654465D46AC4201D180
:1000E00000F0AFF87E460F3EB6460FCC01263342F5
:1000F00000D0FB1A3343A246AB4618476475000094
:1001000084750000103A02D378C878C1FAD8520733
:1001100001D330C830C101D504680C6070470000BD
:100120000023002400250026103A01D378C1FBD813
:10013000520700D330C100D50B60704710B56E294F
:1001400002D100F029FA10BD702902D100F059FB4C
:1001500010BD662902D107F011F910BD652902D141
:1001600007F00CF910BD672902D107F007F910BD9F
:10017000612902D107F00AF910BD03681B0A01D3F7
:1001800080231943692902D100F0D0F910BD6429F8
:1001900002D100F0CBF910BD752902D100F0C6F9EB
:1001A00010BD6F2902D100F0D7FA10BD782902D115
:1001B00000F014FB10BDE92902D100F073FA10BD64
:1001C000E42902D100F06EFA10BDF52902D100F049
:1001D00069FA10BDEF2902D100F0CAFA10BDF82962
:1001E00002D100F009FB10BD0368DB0901D38023B5
:1001F0001943632902D101F004F810BD732902D11B
:1002000001F007F810BDE32902D101F011F810BD8B
:10021000F32902D101F014F810BD002010BD1FB564
:1002200001F072F804000020002107F091F8401C52
:1002300060600020002107F075F8E0601FBD10B578
:1002400010BD01F03AF81146FFF7E9FF06F05CFF38
:1002500001F0CEFB03B4FFF7F2FF03BC06F0B2FEE1
:100260000748804707480047FEE7FEE7FEE7FEE74E
:10027000FEE7FEE704480549034A054B70470000C6
:10028000B15B0008C1000008900400209008002025
:1002900090040020704700000FB4054910B503AA70
:1002A000029800F08DF910BC08BC04B0184700009B
:1002B0000803002001E004C0091F0429FBD28B07BA
:1002C00001D50280801CC90700D002707047002948
:1002D0000BD0C30702D00270401C491E022904D370
:1002E000830702D50280801C891EE3E70022EEE727
:1002F0000022DFE7002203098B422CD3030A8B4242
:1003000011D300239C464EE003460B433CD400220D
:1003100043088B4231D303098B421CD3030A8B421F
:1003200001D394463FE0C3098B4201D3CB01C01AED
:10033000524183098B4201D38B01C01A52414309B8
:100340008B4201D34B01C01A524103098B4201D3A6
:100350000B01C01A5241C3088B4201D3CB00C01A13
:10036000524183088B4201D38B00C01A524143088B
:100370008B4201D34B00C01A5241411A00D20146B0
:100380005241104670475DE0CA0F00D04942031049
:1003900000D3404253409C46002203098B422DD398
:1003A000030A8B4212D38901FC2212BA030A8B4240
:1003B0000CD3890192118B4208D3890192118B428F
:1003C00004D389013AD0921100E08909C3098B4214
:1003D00001D3CB01C01A524183098B4201D38B0157
:1003E000C01A524143098B4201D34B01C01A5241FA
:1003F00003098B4201D30B01C01A5241C3088B423F
:1004000001D3CB00C01A524183088B4201D38B0029
:10041000C01A5241D9D243088B4201D34B00C01AB3
:100420005241411A00D201465241104663465B10C8
:1004300001D34042002B00D54942704763465B1010
:1004400000D3404201B50549002802DC491C0840A0
:1004500000E00846C046C04602BD00BFFFFFFF7F68
:10046000704770477047704770B5044685690068EB
:10047000C10601D5302600E02026C00707D070BD98
:1004800062683046A1689047206A401C20626D1E59
:10049000F6D570BD70B5044685690078C00707D1F0
:1004A00070BD6268A16820209047206A401C2062CD
:1004B0006D1EF6D570BD09684A0501D540B270477A
:1004C000C905FCD500B2704709684A0501D5C0B21C
:1004D0007047C905FCD580B2704770B50C4605461B
:1004E000012A05D02878800600D5EA69002302E0B9
:1004F000012305E05B1C934202D2E05C0028F9D1A5
:10050000A869E618C01AA861286AC0182862284697
:10051000FFF7AAFF04E06A682078A968641C904786
:10052000B442F8D32846FFF7B5FF70BDF7B50025F4
:1005300075291068009914A611D0FFF7BCFF002898
:1005400002DA404211A608E0009909688A0701D53D
:100550000FA602E0490704D50EA6012501E0FFF72A
:10056000B3FF009F0024243704E000F092FE3031F6
:100570003955641C0028F8D12B4632462146009894
:1005800000F04DFAFEBD0000000000002D0000004C
:100590002B0000002000000011680268006A53056B
:1005A00001D5087009E0D30501D5088005E01306E0
:1005B00002D5C21705C100E00860012070470000A5
:1005C000084B70B50D467B4400F0FDFD04462846FF
:1005D00000F03AFE002802D00020C04370BD204643
:1005E00070BD0000136B0000F7B50446154686B0D9
:1005F0002B487844002703C83E460090019111E043
:1006000007986A467100415A02A800F021FE411C79
:1006100007D02178890603D5E269391891420ED8AE
:100620003F18761C2078800602D5E069B84206DDC6
:10063000AE42E5DB07987100405A0028E0D1A0697E
:10064000C01BA0612046FFF70FFF154878445A38B9
:1006500003C800900020019116E041006A46079807
:10066000415A02A800F0F4FD0590401C0AD0002574
:1006700005E0626802A8A168405D90476D1C05987E
:100680008542F6D30498401CB0420490E5DB206A12
:10069000C01920622046FFF7FDFE09B0F0BD000042
:1006A000A66D0000F7B5D21D0025D20815A6D20010
:1006B000F52905CA11D0002A05DA002140429141EE
:1006C00011A60A4608E0009909688B0701D50FA614
:1006D00002E0490701D50EA601251146009F00241E
:1006E000243704E000F05EF930323A55641C0246CB
:1006F0000A43F7D12B4632462146009800F08FF985
:10070000FEBD0000000000002D0000002B000000D6
:100710002000000070B504460021243408E055078D
:10072000D2086D0F303565545D072A43DB08491C3C
:1007300015461D43F3D10468002310A2250708D5F0
:1007400020252C400C4304D0C46901230CA2641E54
:10075000C46100F064F970BD10B50446214610680C
:10076000FFF7B2FE002302462046FFF7D3FF10BD7D
:10077000D21DD108C9000CC9CCE700000000000060
:1007800030000000F8B50F460188090502D5224C5B
:100790007C4402E0204C7C440E3405460021243584
:1007A00008E016071209360FA65D6E541E07324385
:1007B0001B09491C16461E43F3D122460478002328
:1007C000240705D5702F06D0002901D0022311324D
:1007D00000F025F9F8BD01231032F9E770B50446A1
:1007E0000D4621461068FFF76FFE0023024629469A
:1007F0002046FFF7C7FF70BDD21DD308DB000CCB2E
:10080000C0E730B403682024126823430360082340
:10081000C36130BC0023B5E7106C0000F3B504469B
:10082000002081B020622046E1688847002872D00D
:10083000252802D06268A168ABE0594F00267F44AA
:100840002046E16888472028054608DB312D06D27E
:10085000781920380078002801D00643F0E7B00767
:1008600001D5042086430020E0610746A0612A2DBF
:100870000AD0284606F04EFD002827D0B8000019FF
:10088000303D0090856119E00298BA00121902C843
:10089000916102902046E1688847012F054617D1F3
:1008A000E06900281FDA202086431CE000980A2116
:1008B0008069484300994019303888612046E168D2
:1008C0008847054606F026FD0028EFD1012F0AD003
:1008D0002E2D08D12046E168884705462020064392
:1008E0007F1C022FC3DBA069002803DA4042A0610D
:1008F00001200643F00701D0102086436C2D0BD059
:10090000682D09D04C2D3CD06A2D38D0742D38D0AC
:100910007A2D36D016E040E0E1682F462046884721
:10092000B842054609D16C2F29D001208002E16828
:10093000064320468847054604E06C2F1DD0FF2063
:1009400001300643002D28D028464138192803D805
:100950000120C00206432035204626602946029A1F
:100960001646FFF7EBFB002810D001280BD0F61D30
:10097000F008C0000830029055E74020E1E78020F1
:10098000D5E70020D3E7361D02964CE7626828467B
:10099000A1689047206A401C44E7206AFEBD000021
:1009A0008A6B00000B4670B5024689078008084331
:1009B00019469D08141AA941250908070543080985
:1009C0002C194841250A01060D43010A2C19414101
:1009D000200C0D0428430D0C00194D410021401935
:1009E0004D41C00869070843E908840F8D0025437D
:1009F000840024184D4124196D41121BAB4107E0BE
:100A00000925ED432C11521963410024401C61411A
:100A10001C460A250026551BB441F1D270BDFFB516
:100A200004460D4681B0243000902168880604D524
:100A30001022E0699143216000E00120A84201DD1D
:100A4000471B00E000270498A1697A191018081ABA
:100A5000A0612078C00602D42046FFF705FD0026DD
:100A600008E003986268A168805D9047206A401C96
:100A7000761C206204988642F3DB2078C0060AD5F3
:100A80002046FFF7F1FC06E06268A168302090473D
:100A9000206A401C206238467F1E0028F4DC07E0F4
:100AA00000986268A168405D9047206A401C2062FF
:100AB00028466D1E0028F3DC2046FFF7EBFC20786B
:100AC000000602D5022005B0F0BD0120FBE70000C2
:100AD000FFB50C461E468FB003CA089009914F001F
:100AE0007D0D00D16D1E002108460020C046032167
:100AF000099A89050840002A03DA82008018400814
:100B00000840800D01280A9002DD0020C0430A90B1
:100B1000089807430DD0F048F049281848430714B7
:100B2000189800281DD07542291E1DDD0A984242E2
:100B30001BE01898012802D00020302104E000209A
:100B4000F24305E02154401CB042FBDB304600225A
:100B5000189B002121540F998B600A60486013B0E4
:100B6000F0BDBD1B6D1CDFE70A9A002900DA69425F
:100B70000BA800F011FC0BAB07CB03AB07C3089924
:100B8000099800F075FC6B4607C30146D448091864
:100B9000002D00910BDDD24903980A9A4942401872
:100BA000002303A90390684600F0D2FE08E00399F1
:100BB0000A9A0023081803A90390684600F072FE01
:100BC0006B4607C30004000C03D00020C04341085B
:100BD00000E01046189A002A03D000220092154621
:100BE0001EE0751E05D4FFF7DDFE303262556D1E26
:100BF000F9D501220843079602D000227F1C04E0A9
:100C00002078302801D100227F1E002A069787D045
:100C10001EE0112D07DAFFF7C5FE303262556D1C5C
:100C200002460A43F5D1084303D00098002819D0A2
:100C30000EE00021681E05E0235C625C63542254D0
:100C4000401E491C8142F7DBA81B401E07950690F9
:100C5000079A18990020A0540F98079B069A816064
:100C60000CC07CE711260020189059E7D21DF0B582
:100C70000D460446D10893B0C90003C90C900D91EC
:100C800006F032FB02460D98C00F01D02D2007E080
:100C90002068810701D52B2002E04007C00F4001EA
:100CA000032A0F9001D0072A05DB03462946204678
:100CB00000F02EFB0EE12078800601D5E76900E008
:100CC00006272846652D04D0662814D0672D69D1E3
:100CD0002DE00020112F009001DB112300E07B1C90
:100CE0000CAA03A910A8FFF7F3FE1199002610988B
:100CF0007D1C0E9142E001203B460CAAC0070B90E0
:100D00000120009003A910A8FFF7E2FE119D1298A0
:100D10001099002600280E9501D1781C0D18781B1B
:100D200002D446427D1C761EE81B00903AE0012F5B
:100D300000DA01270020112F009001DD112300E0CF
:100D40003B460CAA03A910A8FFF7C2FE11993D4625
:100D5000109800260E91217809070BD40E99A9420C
:100D600000DA0D4603A9012D04DD4A19203AD27F8D
:100D7000302A06D0B84201DA011D04DA01210091BF
:100D80000FE06D1EEFE7002802DC86192D1A03E044
:100D9000411CA94200DD0D46801B401C0090012033
:100DA000C0070B902078000705D40098A84202DB0A
:100DB0000020C043009069460020C8720B980121B2
:100DC00002AF0337C907884225D0022010902B209C
:100DD00011900B9800280BDA40420B902D201190B7
:100DE00006E00B9800F055FA30317F1E0B903970F9
:100DF0001099481E00291090F3DC0B980028F0D1C0
:100E000011987F1E38702088000501D5452000E02C
:100E100065207F1E387001A8C01BC01D0B900F9865
:100E2000002800D0012041190098C01709180B981C
:100E30000818A169081A401EA0612078C00602D4D3
:100E40002046FFF711FB0F98002805D06268A168C3
:100E50009047206A401C20622078C00625D5204695
:100E6000FFF702FB21E0002E07DB0E98B04204DD05
:100E700003A86268805DA16802E06268A168302012
:100E80009047206A761C401C20620098401E002873
:100E900000900AD100F038FAC06862680168405CCE
:100EA000A1689047206A401C206228466D1E0028D9
:100EB000D9DC07E062683878A1687F1C9047206A17
:100EC000401C20620B99481E00290B90F2DC204642
:100ED000FFF7E0FA032042E601FCFFFF104D00009F
:100EE000E1DFFFFFD21DF0B504460D46D0088DB0FE
:100EF000C000466807683146384606F0F5F90246F4
:100F0000F00F01D02D2307E02068810701D52B23A6
:100F100002E04007C00F43016846002B037001D078
:100F2000012000E00020032A0A9001D0072A04DBF8
:100F30002946204600F0ECF92DE12078800601D406
:100F40000D2500E0E5697000400D0D2D01904BDA94
:100F5000300D00210B9008460020C0460321890572
:100F60000840002E05DA82008018C20F10184010C9
:100F700008408015012801DD0020C043A90000239E
:100F8000182906D39C460A460123183A1B07D3406A
:100F900003E001221205CA4094460C31202902D3F5
:100FA0003A46203900E032468A40002802DD002A15
:100FB00006D119E0002817D10121C9078A4213D3AD
:100FC000194663467F185E41002806D10120C007FC
:100FD000824202D1084687439E430B98310D8142DD
:100FE00002D00198401C01902088000502D571496B
:100FF000794402E06F49794419396B460A983022E6
:101000001A540A980A7C401C1A54401C0A900198F1
:10101000002801DC302000E031201872019A012004
:10102000002A02D0644BD21804E072003A4302D086
:10103000614A521C0192002D02DC2278120703D56E
:101040006A462E20507202200022864694460CE00A
:1010500032033601120F6D1E8B5C02AA13546246D6
:10106000521C401C9446052A01DA002DF0DC0022B7
:1010700002AE08E03B0F3F01CB5C521C6D1E3354A7
:10108000401C082A01DA002DF4DC23689A0601D5F9
:1010900011E0401E704504DD3218203AD27F302A1C
:1010A000F7D0002807DD3218203AD27F2E2A02D14D
:1010B0001A0700D4401E002D03DD3E223254401C8E
:1010C0006D1E497C31540199401C002906DA2D21FE
:1010D000471C315401984042019003E02B21471CEA
:1010E000315401987D21C900884206DBFFF70CF9D5
:1010F0003030F0557F1C019101E0642808DB019835
:101100006421FFF701F93030F0557F1C019101E0B7
:101110000A2806DB01980A21FFF7F6F83030F0556F
:101120007F1C01980A21FFF7EFF83031F1550A983A
:10113000A1697F1C7A191018081AA0612078C006CE
:1011400002D42046FFF790F9216A6E460A980818E3
:10115000206204E062683078A168761C90470A98A3
:10116000401E0A90401CF5D12078C00602D52046CA
:10117000FFF77AF902AE09E03078761C3E280DD0F0
:101180006268A1689047206A401C20627F1EF3D2EB
:101190002046FFF77FF90DB00320F0BD206A40190B
:1011A000206203E06268A168302090476D1EEDD395
:1011B000F8E70000FC63000001FCFFFF01694A1C26
:1011C00002610878704700B58FB002910021059147
:1011D0000549019379440391114604906846FFF74D
:1011E0001DFB0FB000BD0000E5FFFFFF10B5436918
:1011F000002B02D0C046C04601E0FFF76EF9012087
:1012000010BD1278014624310A7000224A70012272
:10121000ECE711680022D243E8E710B54369002BE0
:1012200002D0C046C04601E0FFF7DEF9012010BD44
:1012300012880146243182840022C2840122ECE714
:1012400011680022D243E8E7C06880210840704757
:10125000F8B516460C46054600F04EF80368FF2028
:101260000230C05C012807D0FF2C0FD8185D002881
:101270000CD001202C70F8BDFF33324621460833D4
:101280001868C71828460023B847F8BD0020C04397
:10129000F8BD01468008081A02091018020A101841
:1012A000020C1018C008820012185200891A01E0BE
:1012B000401C0A390A29FBD27047754600F0A0FB92
:1012C000AE46050069465346C008C000854618B0C2
:1012D00020B5FEF7CFFF60BCB64600260027C0C58C
:1012E000C0C5C0C5C0C5C0C5C0C5C0C5C0C5403DDE
:1012F000490849008D46704710B500F005F8001DFB
:1013000010BD00BF4D600000004870473000002055
:10131000F8B51F46044601230068DB020326014698
:101320001840072A05DB002801D017A506E017A5FD
:1013300004E0002801D016A500E016A51020814386
:101340002160A069C01E002FA06101D0401EA061D5
:101350002046FFF789F8002F09D038466268A16857
:101360009047206A401C2062C01C206206E0206A70
:10137000FAE762682878A1686D1C9047761EF8D25B
:101380002046FFF787F8F8BD4E414E006E616E00B3
:10139000494E4600696E6600F7B516468AB0334876
:1013A00078446C4603467C33C06F5A689B680DC412
:1013B0002E487844763003AC0DC80DC43720C001E8
:1013C000081837211B30FEF79FFF05460C46803D6D
:1013D0001B3C02D56442012000E000200027099058
:1013E00010E0E0070CD00C202049784379443246C5
:1013F0004C3941186846012300F054FA6B4607C384
:1014000064107F1C002CECD1184F7F442E3F16E057
:10141000E80712D02001C0190EC806910893079260
:101420000068F04201D1981908903246012306A9BC
:1014300003A800F037FA03AB07C36D10641C002D3E
:10144000E6D10998002806D032466946012303A850
:1014500000F07EFA05E001233246694603A800F059
:1014600021FA0A9B07C30DB0F0BD000060600000C8
:10147000034640000A4610B5400D0BD00121C907B4
:101480000F24A40200191C0364082143540D2143B6
:10149000D20207E000210120F2E7D40F49002143E6
:1014A0005200401E0029F8DADB0FDB07184310BD9D
:1014B000FFB50D46144685B04868516805F0FCFE3E
:1014C00000910190A868A16805F0F6FE02910390D2
:1014D000A868616805F0F0FE029A12188242029232
:1014E00001D2012000E00020019A0B18D218002838
:1014F000019202D08A4202D903E08A4201D201203D
:1015000000E000200099081800906868A16805F0C4
:10151000D3FE029A12188242029201D2012000E008
:101520000020019A0B18D2180028019202D08A429A
:1015300002D903E08A4201D2012000E00020009994
:1015400008180090286821684000490040084908B0
:101550004018FA49471814E001994000C90F0843A0
:101560000090019802994000C90F08430190029829
:1015700003994000C90F08430290039840007F1E62
:10158000039000980028E7DA0898002801D0EC4E74
:1015900000E00026B74201DA012000E00020002828
:1015A00004902AD0F71BF806C00E15D0029B20210C
:1015B000091A039A8B401A430392029A019BC24074
:1015C0008B401A430292019A009BC2408B400099C3
:1015D0001A430192C14000917B110DD06F46032048
:1015E000C11A03D500218200B95003E08A008100AE
:1015F000BA587A50401EF3D537460398029900280E
:1016000000D00120014308980291002808460CD020
:10161000002800D001200199019A490508430121C1
:10162000D20AC902D202019200E001210E9B0122DE
:10163000D207012B02D0002B03D013E0002807D1E2
:1016400020E0904204D890420CD1019B0B4209D07B
:10165000019B5918019105D10099491C009101D1B4
:101660007F1C009200280DD0102108460020C046A3
:101670000498002806D00F98002803D008210846B7
:101680000020C04628682168019B009A4840C10F8D
:101690000598C90739430EC009B0F0BDFFB587B042
:1016A000099A08980899536892684068896896462C
:1016B0000022039317469446089A12685300099A29
:1016C0005B081268520052089A1A9E4BD4180A9A64
:1016D000002A01D0352200E0402206920022012398
:1016E00015460492DB07059324E0002D05D17546CD
:1016F0000346039E4D1BB34109D375466646039BC3
:10170000491B049D9841059B7519AC465F41634692
:101710003B4308D0059B049EDD0776082E435B08FB
:101720000496059301E0521E641EC50FED0749188B
:101730004041521C069B9A42D7DB002D04D17546CE
:10174000039A6B1A824101D203200CE0039A0B46E4
:101750006B404240134303D0014303D0012002E019
:10176000022000E0002061460191002100970291D3
:101770000A99002905D0614640020143704B01914E
:1017800002E08007002302909C4201DA012000E081
:10179000002007003AD01A1BD006C00E15D0029DBB
:1017A0002021019C091AC5408C402543029C8C4095
:1017B00000D001242543019C0295009DC4408D402A
:1017C00000992C430194C140009154111DD06D46E5
:1017D0000221002202290CD10320001B07E000286F
:1017E00004DB8600AE59002E00D00122401C0328E5
:1017F000F5DB081B02D588002A5004E08000285839
:1018000010438A00A850491EE3D51C460A980028B8
:1018100002980CD0002800D001200199019A4905B6
:1018200008430121D20AC902D202019200E001213B
:10183000109B0122D207012B02D0002B03D013E012
:10184000002807D11FE0904204D890420CD1019BA0
:101850000B4209D0019B5918019105D10099491CEF
:10186000009101D1641C009200280CD01021084680
:101870000020C046002F06D01198002803D0082170
:1018800008460020C04608980999019A009B006804
:1018900009684840C10F0798C907214382600AC000
:1018A0000BB0F0BD00B585B0019300920A46014629
:1018B000002302A8FFF7FCFD02A807C805B000BD81
:1018C000FFB50A461F4685B0079901930123009191
:1018D000014602A8FFF7ECFD02990398049ECA0F87
:1018E0004900D20700920F22490892028C1A002167
:1018F000002800DB0C46450013486D08844214D3D1
:10190000079A002A04DA441E0026104DF64302E02E
:1019100004460D460E46102108460020C046002F02
:1019200003D0042108460020C0462005E90A0843E8
:10193000009908436905F20A1143ADE602C0FFFFB2
:10194000013C0000FF3F0000FF070000FFFFFF7F9A
:1019500000B585B0019300920A460146002302A813
:10196000FFF79CFE02A807C8A8E7FFB50A461F4676
:1019700085B00799019301230091014602A8FFF762
:101980008DFE02990398049ECA0F4900D207009267
:101990000F22490892028C1A0021002800DB0C4615
:1019A000450011486D08844214D3079A002A04DACE
:1019B000441E00260D4DF64302E004460D460E4639
:1019C000102108460020C046002F03D004210846FD
:1019D0000020C0462005E90A08430099084369052C
:1019E000F20A114358E60000FF070000FFFFFF7FE7
:1019F00010B50446C046C0462046FEF72BFC10BD7D
:101A00000048704710000020024670B50A43920754
:101A10002AD11E4DEE0104C808C9541B944334401A
:101A200017D0D0B2D9B2401A2106014310D190B2DA
:101A300099B2401A210401430AD110021902000A86
:101A4000090A401A2102014302D1100E190E401A50
:101A500070BD9A42DFD010BA19BA884201D901206C
:101A600070BD0020C04370BD02780B78401C491C3B
:101A7000002A09D09A4207D102780B78401C491CF1
:101A8000002A01D09A42EFD0D01A70BD01010101A5
:101A900080B582B002F044FB002804D0FFE701A922
:101AA0000120087003E001A900200870FFE701A8E9
:101AB000007802B080BD80B582B0FFF7E9FF002852
:101AC00004D0FFE701A90120087003E001A900206C
:101AD0000870FFE701A8007802B080BD80B5FFF76D
:101AE000EAFF80BD80B588B0079006A8018005A8F0
:101AF00002803F48FEF7D0FB3E480290FEF7CCFB49
:101B00002948FEF7C9FB0298FEF7C6FB04A900208E
:101B10000880FFE704A80088019006A8008805A9AE
:101B20000988FEF7E7FB0146019888422CDAFFE7B7
:101B300004A801881E48FEF7AFFB03A90020087027
:101B4000FFE703A8007805A90988884213DAFFE7B0
:101B5000079804A90A8805A90988514303AA12789D
:101B60008918415C1348FEF797FBFFE70398401C78
:101B700003A90870E5E71E48FEF78EFBFFE704980F
:101B8000401C04A90880C5E71A480090FEF784FBB2
:101B90000648FEF781FB0098FEF77EFB1448FEF72F
:101BA0007BFB002008B080BD03760008D6750008D6
:101BB0007F7500088475000880B582B00C480190DC
:101BC000FEF76AFB0B480090FEF766FB0A48FEF73B
:101BD00063FB0098FEF760FB0198FEF75DFB07488A
:101BE000012109020822FFF77DFF02B080BDC04637
:101BF0005C7600088A7500083176000870000020C5
:101C000080B586B0034604A80380039102A90A8028
:101C1000008809884018FF210231884204DBFFE771
:101C200005A90120087014E004A80188039B02A8FC
:101C300000880090A120012202F0C2FA002804D0FE
:101C4000FFE705A90120087003E005A9002008703E
:101C5000FFE705A8007806B080BD80B584B000928B
:101C60000A460099034603A80380029201AA118044
:101C7000008802991288FFF7C3FF04B080BD72B6D6
:101C8000FFE7FEE782B000900098002804D1FFE74C
:101C900001A90120087051E000982521405C02282C
:101CA0000DD0FFE700990420C863FFE700992422C4
:101CB00000208854FFE701A9012008703EE0009849
:101CC000016808680E22904308600098416C08681B
:101CD0000122130298430860009801680868904345
:101CE00008600098006C1C21084082404349086845
:101CF000104308600099C86C896C48600098006DBA
:101D000000280CD0FFE70098016D0868012212023C
:101D1000904308600099886D496D4860FFE700991D
:101D2000252201208854FFE70099242200208854AE
:101D3000FFE7FFE701A900200870FFE701A800788E
:101D400002B0704780B582B00190694600200870EB
:101D500001982521405C022807D0FFE70199042063
:101D6000C86369460120087043E00198016808686B
:101D70000E22904308600198016808680122904390
:101D800008600198416C0868130298430860019844
:101D9000006C1C2108408240184908681043086004
:101DA0000199C86C896C48600198006D00280CD0BE
:101DB000FFE70198016D0868012212029043086054
:101DC0000199886D496D4860FFE70199252201203E
:101DD0008854FFE70199242200208854FFE70198E6
:101DE000806B002804D0FFE70198816B8847FFE7EC
:101DF000FFE76846007802B080BDC046040002409C
:101E000081B0009000982521405C01B0704700002F
:101E10008AB00990089100200790FFE708980068B1
:101E20000799C840002800D147E108980068079A40
:101E300001219140084006900698002800D138E121
:101E40000898406803210840012807D0FFE7089858
:101E500040680321084002282CD1FFE709988068D8
:101E6000059007984000032181400598884305901C
:101E70000898C1680798400081400598084305907C
:101E8000059809998860099840680590079801218C
:101E900081400598884305900898406810210840C3
:101EA000010907988140059808430590059809990C
:101EB0004860FFE70898406803210840032816D0CF
:101EC000FFE70998C068059007984000032181400A
:101ED00005988843059008988168079840008140DC
:101EE00005980843059005980999C860FFE7089888
:101EF000406803210840022820D1FFE7099807998C
:101F0000C90889004018006A059007984007C00E6C
:101F10000F2181400598884305900898016907982A
:101F20004007C00E8140059808430590059809991F
:101F3000079AD208920089180862FFE7099800689A
:101F4000059007984100032002468A400599914375
:101F5000059108994968014007984000814005981B
:101F600008430590059809990860089880798007CA
:101F7000002800D19CE0079803218843504940582D
:101F8000059007988007C00E0F218140059888436F
:101F90000590099805210907884203D1FFE7002031
:101FA000049022E009984749884203D1FFE70120C5
:101FB000039017E009984449884203D1FFE70220C3
:101FC00002900CE00999414A0320052300939142B5
:101FD000019001D00098019001980290FFE70298CB
:101FE0000390FFE703980490FFE7049907988007A0
:101FF000C00E814005980843059005980799032273
:1020000091432F4A885032480068059006990598F8
:102010008843059008988079C007002805D0FFE71D
:102020000699059808430590FFE705982849086038
:1020300028480068059006990598884305900898F7
:1020400080798007002805D5FFE7069905980843A1
:102050000590FFE705981F4908601F480068059034
:10206000069905988843059008988079C00600284D
:1020700005D5FFE70699059808430590FFE7059801
:102080001549086015480068059006990598884329
:102090000590089880798006002805D5FFE7069905
:1020A000059808430590FFE705980C490860FFE78D
:1020B000FFE70798401C0790B0E60AB07047C0469B
:1020C000601802400004005000080050000C00504E
:1020D0008018024084180240001802400418024090
:1020E000014800687047C0468C04002010B583B0DA
:1020F0000190009101984121405C202839D1FFE7EF
:10210000FFE701984021405C012804D1FFE702A9C4
:102110000220087031E00199402201208854FFE735
:10212000FFE701994122242088540198016808683A
:102130000123984308600198016808681C03A043C4
:102140000860009C019801680868204308600198B5
:102150000168086818430860019920208854FFE747
:102160000199402200208854FFE702A9002008704E
:1021700003E002A902200870FFE702A8007803B07C
:1021800010BD84B00290019102984121405C20284A
:102190003FD1FFE7FFE702984021405C012804D1CE
:1021A000FFE703A90220087037E0029940220120CE
:1021B0008854FFE7FFE702994122242088540298BF
:1021C0000168086801239843086002980068006865
:1021D000009000980F2109028843009001980102A5
:1021E00000980843009000980299096808600298D6
:1021F0000168086818430860029920208854FFE7A6
:102200000299402200208854FFE703A900200870AB
:1022100003E003A902200870FFE703A8007804B0D8
:10222000704781B0009001B0704783B0029001A860
:1022300001706846028003B0704780B584B0039097
:102240000398006880690290039800680068019014
:102250000398406B002806D0FFE70398436B029970
:10226000019A9847FFE704B080BD81B0009001B0AB
:102270007047000080B582B000900098002804D11B
:10228000FFE701A90120087074E000984121405C3B
:10229000002808D1FFE700994022002088540098C8
:1022A00000F0B6F9FFE700994122242088540098F5
:1022B00001680868012290430860009948680F236C
:1022C0001B06984309680861009801688868D20372
:1022D000904388600098C068012808D1FFE7009902
:1022E00088680122D20310430968886007E00099DA
:1022F000886821229202104309688860FFE70098ED
:10230000C068022806D1FFE7009801680120C002DA
:102310004860FFE7009801684868184A1043486021
:1023200000980168C8680122D3039843C8600099E7
:1023300008694B6918438B691B0218430968C86018
:102340000099C8690B6A1843096808600098016819
:10235000086810430860009900204864009A4123EF
:102360002021D1540099086300994222885401A980
:102370000870FFE701A8007802B080BD008000026D
:1023800081B0009001B0704781B0009001B07047FB
:1023900081B0009001B0704781B0009001B07047EB
:1023A00081B0009001B07047B0B58AB00446109873
:1023B0000F980E9D089407AC218006A90A8005A9F4
:1023C0000B8004A9088008984121405C202800D097
:1023D00012E10E98002805D0FFE704A80088002825
:1023E00007D1FFE7089A01204102516409A908704A
:1023F00006E1FFE708984021405C012804D1FFE78F
:1024000009A902200870FBE00899402201208854A5
:10241000FFE7FFE7FFF764FE039008980399009138
:102420000122D103192303F0EAF8002804D0FFE7C2
:1024300009A901200870E3E008994122222088546C
:1024400008994222402088540899002048640E9937
:10245000089A51620499089A518508994863089826
:1024600007A9098806AA128805AB1B88109C039D42
:102470000195009402F0D6FD00280AD0FFE7FFE79F
:102480000899402200208854FFE709A9012008701C
:10249000B6E00898408D000A00280FD0FFE70899A1
:1024A000FF200885089807A909882822825C564BD6
:1024B000009301231B0603F051F80FE00898408DAC
:1024C00008990885089807A909882822825C4E4B3C
:1024D000009301235B0603F041F8FFE7FFE708984C
:1024E000109B039900910421002203F088F8002832
:1024F00004D0FFE709A90120087081E0089800686E
:10250000406A0899496A08700899486A401C4862FC
:102510000899088D401E08850899488D401E4885F9
:102520000898408D00283AD0FFE70898008D0028D1
:1025300035D1FFE70898109B039900918021002274
:1025400003F05DF8002804D0FFE709A90120087016
:1025500056E00898408D000A00280FD0FFE7089940
:10256000FF200885089807A909882822825C002393
:10257000009301231B0602F0F1FF0FE00898408D45
:1025800008990885089807A909882822825C0023F1
:10259000009301235B0602F0E1FFFFE7FFE7FFE79F
:1025A0000898408D00289AD1FFE708981099039A5F
:1025B00003F06CF8002804D0FFE709A90120087097
:1025C0001EE0089801682020C86108990A685168CF
:1025D0000E4B1940516008994122885408994222B3
:1025E00000208854FFE70899402200208854FFE724
:1025F00009A90020087003E009A902200870FFE77C
:1026000009A800780AB0B0BD0024008000E800FEF0
:1026100080B58AB009900020089007900690059038
:102620000490099800682549884230D1FFE7FFE708
:102630001848026801210A430260006808400390BC
:102640000398FFE70320C0020490122005900020A9
:1026500006900790062008900520000704A9FFF7C0
:10266000D7FBFFE70C480268012189050A43026095
:102670000068084002900298FFE7182001900022AD
:10268000114600F0EFF8019800F0E1F8FFE70AB01A
:1026900080BDC046341002403C10024080B582B07C
:1026A0000190019800680549884205D1FFE7044878
:1026B000C821FDF71BFEFFE702B080BD00580040B7
:1026C0007401002081B0009001B0704780B584B0E3
:1026D000029001916846028002984121405C2028C6
:1026E00041D1FFE7FFE702984021405C012804D177
:1026F000FFE703A90220087039E002994022012077
:102700008854FFE7FFE7029941222220885402996A
:1027100042222020885402990020486402980168CF
:1027200048680122D20390434860019802994862A8
:102730000098029948850298408D0299088502996F
:102740000D48C86202990D484863FFE7029940228C
:1027500000208854FFE70298094901F0E5FD03A92C
:102760000020087003E003A902200870FFE703A817
:10277000007804B080BDC0460000FFFF155300087C
:10278000028000003048027802490868801808601A
:102790007047C0468C04002080B582B001A900209B
:1027A0000870E549086801221202104308600320FE
:1027B00000F00EF8002804D0FFE701A901200870FE
:1027C00002E000F043F8FFE701A8007802B080BD06
:1027D00080B584B0039002A9002008701A480078E0
:1027E000002829D0FFE7DC480068019016480178EE
:1027F0007D20C000FDF77EFD01460198FDF77AFDC2
:1028000000F0B8FD002812D1FFE70398032809D88B
:10281000FFE703990022D04300F024F80398CA4947
:10282000086003E002A901200870FFE703E002A9A5
:1028300001200870FFE703E002A901200870FFE70C
:1028400002A8007804B080BD08000020704780B561
:1028500082B0014601A801700021405604F05AFBE5
:1028600002B080BD80B584B0034603A80370029116
:10287000019200214056029904F062FB04B080BD31
:1028800080B584B002901A4908680322520290432E
:10289000029A1043086002980121490288421ED121
:1028A000FFE7AD480168062048431249FDF722FDC5
:1028B000401C0190FFE710480068400500280DD536
:1028C000FFE70198002804D0FFE70198401E01901F
:1028D00003E003A90320087005E0ECE7FFE703A984
:1028E00000200870FFE703A8007804B080BDC04650
:1028F0000070004040420F001470004080B584B06A
:10290000029001910298002804D1FFE703A9012059
:1029100008700CE101988849096807221140884233
:1029200021D9FFE78449086807229043019A1043A0
:102930000860FFF7D5FB0090FFE77F48006807219C
:102940000840019988420DD0FFE7FFF7C9FB0099C5
:10295000401A7E49884204D3FFE703A90320087088
:10296000E5E0EAE7FFE7029800788007002817D53E
:10297000FFE7029800784007002807D5FFE7C44921
:1029800008680722120310430860FFE7C04908687F
:102990000F2212029043029A926810430860FFE7E8
:1029A00002980078C007002872D0FFE702984068BC
:1029B00001280BD1FFE7BA4800688003002804D43F
:1029C000FFE703A901200870B1E03DE002984068EC
:1029D00002280BD1FFE7B24800688001002804D428
:1029E000FFE703A901200870A1E02CE002984068ED
:1029F00000280BD1FFE7AA4800684005002804D44E
:102A0000FFE703A90120087091E01BE002984068ED
:102A100003280BD1FFE74A4800688007002804D448
:102A2000FFE703A90120087081E00AE0434800683D
:102A30008007002804D4FFE703A90120087076E08E
:102A4000FFE7FFE7FFE7FFE79149086807229043A8
:102A5000029A526810430860FFF742FB0090FFE7BC
:102A60008B4800683821084002994968C9008842AB
:102A70000DD0FFE7FFF734FB0099401A3349884235
:102A800004D3FFE703A90320087050E0E8E7FFE75D
:102A900001982949096807221140884221D2FFE79D
:102AA0002549086807229043019A10430860FFF700
:102AB00017FB0090FFE720480068072108400199B4
:102AC00088420DD0FFE7FFF70BFB0099401A1F4922
:102AD000884204D3FFE703A90320087027E0EAE750
:102AE000FFE702980078400700280AD5FFE7684909
:102AF0000868072212039043029AD26810430860C4
:102B0000FFE700F03FF8624909680F221202114006
:102B10008A090C4989581F221140C8400E49086093
:102B200009480068FFF754FE03A90870FFE703A8EF
:102B3000007804B080BDC046002002405C10024016
:102B400060100240987400080C00002089130000F7
:102B5000014800687047C0460400002080B582B07C
:102B6000FFF7F6FF019002F023FE01460198090BE2
:102B70008A00034989581F221140C84002B080BD15
:102B8000D874000880B588B0414800688006400FBE
:102B900000280FD1FFE7424800680721C90208401A
:102BA000C10A01208840039003993C48FDF7A2FB2D
:102BB000029069E03648006838210840082803D1AF
:102BC000FFE7354802905EE0314800683821084050
:102BD00010283CD1FFE72F480168032211400691DD
:102BE0000068702108400009401C0490069801907C
:102BF000022812D0FFE7019803280FD1FFE70499BC
:102C00002548FDF777FB0146224800687F22120223
:102C10001040000A484307900EE0FFE704991F4860
:102C2000FDF768FB01461B4800687F221202104036
:102C3000000A48430790FFE716480068400F401C11
:102C4000059007980599FDF755FB02901AE010488A
:102C5000006838210840202804D1FFE70120C00384
:102C600002900EE00A48006838210840182804D174
:102C7000FFE77D200002029002E000200290FFE7C3
:102C8000FFE7FFE7FFE7FFE7029808B080BDC04617
:102C9000081002400C10024000127A000024F400D8
:102CA0000010024010B588B006900698002804D1A4
:102CB000FFE707A9012008702EE306980078C007F7
:102CC000002800D188E0FC480068382108400490C2
:102CD000FA4800680321084003900498102804D1A2
:102CE000FFE70398032804D0FFE70498082810D1D1
:102CF000FFE7F84800688003002809D5FFE7069839
:102D00004068002804D1FFE707A90120087003E309
:102D100061E0FFE70698406801210904884207D175
:102D2000FFE7EC49086801221204104308601DE027
:102D3000069840680521090488420BD1FFE7E54960
:102D400008680122930418430860086812041043BD
:102D500008600AE0DF49086801221304984308600C
:102D60000868920490430860FFE7FFE7FFE70698D2
:102D70004068002817D0FFE7FFF7B2F90590FFE79A
:102D8000D4480068800300280CD4FFE7FFF7A8F9B7
:102D90000599401A652804D3FFE707A903200870A6
:102DA000BAE2EDE716E0FFF79BF90590FFE7C948A7
:102DB0000068800300280CD5FFE7FFF791F905991B
:102DC000401A652804D3FFE707A903200870A3E28F
:102DD000EDE7FFE7FFE7FFE70698007880070028A8
:102DE00000D4A3E0B4480068382108400490B348F8
:102DF00000680321084003900498102804D1FFE7DD
:102E00000398022804D0FFE7049800283BD1FFE78D
:102E1000B04800684005002809D5FFE70698C0685B
:102E2000002804D1FFE707A90120087074E2AA492D
:102E300008687F2212029043069A526912021043D8
:102E400008600498002811D1FFE7A2480268072112
:102E5000C9028A43069B1B691A4302600068084046
:102E6000C10A9E48C8409E490860FFE79D48006827
:102E7000FFF7AEFC002804D0FFE707A90120087087
:102E80004AE2FFE751E00698C06800282FD0FFE72C
:102E9000904908680722D2029043069A12691043AB
:102EA000086008680122120210430860FFF718F951
:102EB0000590FFE787480068400500280CD4FFE72D
:102EC000FFF70EF90599401A032804D3FFE707A975
:102ED0000320087020E2EDE77F4908687F22120294
:102EE0009043069A52691202104308601CE0794927
:102EF00008680122120290430860FFF7F1F805907C
:102F0000FFE774480068400500280CD5FFE7FFF78D
:102F1000E7F80599401A032804D3FFE707A903201F
:102F20000870F9E1EDE7FFE7FFE7FFE706980078B3
:102F30000007002856D5FFE7F94800683821084007
:102F4000182810D1FFE7F94800688007002809D544
:102F5000FFE706988069002804D1FFE707A9012050
:102F60000870D9E13DE00698806900281CD0FFE791
:102F7000EE490868012210430860FFF7B1F8059098
:102F8000FFE7EA480068800700280CD4FFE7FFF756
:102F9000A7F80599401A032804D3FFE707A90320DF
:102FA0000870B9E1EDE71BE0E049086801229043B1
:102FB0000860FFF795F80590FFE7DC480068800798
:102FC00000280CD5FFE7FFF78BF80599401A032876
:102FD00004D3FFE707A9032008709DE1EDE7FFE7B1
:102FE000FFE7FFE7069800784007002800D4CAE012
:102FF00002A900200870CA4800683821084020282B
:1030000010D1FFE7CC4800688007002809D5FFE70A
:1030100006988068002804D1FFE707A901200870FE
:103020007AE1AFE0C2480068C000002810D4FFE792
:10303000FFE7BF480268012109070A4302600068F0
:10304000084001900198FFE702A901200870FFE7FE
:10305000B8480068C00500281DD4FFE7B5490868D6
:103060000122120210430860FFF73AF80590FFE7CB
:10307000B0480068C00500280CD4FFE7FFF730F81F
:103080000599401A032804D3FFE707A90320087015
:1030900042E1EDE7FFE7FFE706988068012806D1E7
:1030A000FFE7A549086801221043086027E0069859
:1030B0008068052818D103E0081002400C10024077
:1030C0009D490868042210430860086801221043E3
:1030D000086013E000100240041002400024F400D5
:1030E000040000200C00002093490868012290434E
:1030F00008600868042290430860FFE7FFE7FFE7E5
:1031000006988068002818D0FFE7FEF7E9FF0590D1
:10311000FFE789480068800700280DD4FFE7FEF725
:10312000DFFF0599401A8549884204D3FFE707A9C4
:1031300003200870F0E0ECE717E0FEF7D1FF059000
:10314000FFE77D480068800700280DD5FFE7FEF700
:10315000C7FF0599401A7949884204D3FFE707A9B8
:1031600003200870D8E0ECE7FFE702A80078012808
:1031700007D1FFE76E4908680122120790430860F3
:10318000FFE7FFE7FFE70698C069002800D1BFE02E
:10319000634800683821084010287AD0FFE7069875
:1031A000C06902284ED1FFE75F4908680122120674
:1031B00090430860FEF794FF0590FFE75A480068C7
:1031C000800100280CD5FFE7FEF78AFF0599401A19
:1031D000032804D3FFE707A9032008709CE0EDE76C
:1031E00050490868574A1040069B1A6A5C6A224395
:1031F0009C6A24022243DC6A22431B6B1A4310435D
:103200000860494B186801221406204318600868BA
:10321000120710430860FEF763FF0590FFE742487E
:103220000068800100280CD4FFE7FEF759FF0599DC
:10323000401A032804D3FFE707A9032008706BE0B6
:10324000EDE725E03849086801221206904308603E
:10325000344908680322904308600868384A1040DF
:103260000860FEF73DFF0590FFE72F4800688001EA
:1032700000280CD5FFE7FEF733FF0599401A032815
:1032800004D3FFE707A90320087045E0EDE7FFE757
:103290003DE00698C069012804D1FFE707A9012095
:1032A000087039E01F480068039003980321084024
:1032B0000699096A884224D1FFE7039870210840E3
:1032C0000699496A88421CD1FFE703987F210902C9
:1032D00008400699896A0902884212D1FFE70398DB
:1032E0001F21490408400699C96A884209D1FFE7AD
:1032F00003980721490708400699096B884204D0C2
:10330000FFE707A90120087006E0FFE7FFE7FFE7F6
:1033100007A900200870FFE707A8007808B010BDD3
:10332000081002400C1002400010024060100240E1
:103330003C100240007000405C1002408913000005
:10334000FFFFFEEF8C80C11F81B000900098042821
:1033500006D1FFE70649086804221043086005E02B
:1033600003490868042290430860FFE701B07047F2
:1033700010E000E080B582B00190019802F0ECFB13
:1033800002B080BD81B0009001B0704781B0009064
:1033900001B0704781B0009001B0704780B582B035
:1033A00000900098002804D1FFE701A901200870CF
:1033B00045E000983D21405C002808D1FFE70099D6
:1033C0003C2200208854009800F03EF8FFE7009966
:1033D0003D2202208854009901C902F015FC009991
:1033E000482201208854FFE700993E22012088549A
:1033F00000993F2288540099402288540099412224
:103400008854009942228854009943228854FFE747
:10341000FFE70099442201208854009945228854EE
:10342000009946228854009947228854FFE7009962
:103430003D220120885401A900200870FFE701A85F
:10344000007802B080BD000080B584B0039003987E
:1034500000680E49884216D1FFE7FFE70C48026872
:103460000121C9030A4302600068084002900298E3
:10347000FFE71320019003210022FFF7F3F90198E1
:10348000FFF7E5F9FFE704B080BDC046002000402B
:103490004010024083B0019001983D21405C01281A
:1034A00004D0FFE702A90120087038E001993D220D
:1034B0000220885401980168C86801221043C8603E
:1034C000019800681849884206D0FFE70198006813
:1034D0001649884218D1FFE70198006880681449AE
:1034E00008400090009806280DD0FFE700980121C1
:1034F0000904884207D0FFE70198016808680122A3
:1035000010430860FFE706E001980168086801229F
:1035100010430860FFE702A900200870FFE702A837
:10352000007803B07047C046002C01400004004002
:103530000700010081B0009001B0704780B582B0F3
:1035400001900198006800690221084040080028A5
:1035500028D0FFE701980068C068022108404008B1
:1035600000281ED0FFE7019801680220C0430861CF
:103570000199012008770198006880698007002878
:1035800004D0FFE70198FFF7D5FF06E0019800F0AF
:1035900027F9019800F028F9FFE701990020087742
:1035A000FFE7FFE7019800680069042108408008F0
:1035B000002829D0FFE701980068C068042108406E
:1035C000800800281FD0FFE7019801680420C0434D
:1035D00008610199022008770198006880698005D8
:1035E000800F002804D0FFE70198FFF7A3FF06E053
:1035F000019800F0F5F8019800F0F6F8FFE701995E
:1036000000200877FFE7FFE70198006800690821BC
:103610000840C008002828D0FFE701980068C0686B
:1036200008210840C00800281ED0FFE70198016863
:103630000820C043086101990420087701980068B8
:10364000C0698007002804D0FFE70198FFF772FFE8
:1036500006E0019800F0C4F8019800F0C5F8FFE713
:10366000019900200877FFE7FFE7019800680069EB
:10367000102108400009002829D0FFE701980068C0
:10368000C06810210840000900281FD0FFE70198FA
:1036900001681020C043086101990820087701984B
:1036A0000068C0698005800F002804D0FFE70198FA
:1036B000FFF740FF06E0019800F092F8019800F053
:1036C00093F8FFE7019900200877FFE7FFE70198EB
:1036D00000680069C007002811D0FFE70198006862
:1036E000C068C007002809D0FFE7019801680120E1
:1036F000C0430861019800F07BF8FFE7FFE70198FD
:1037000000680069C0B2C009002812D0FFE7019824
:103710000068C068C0B2C009002809D0FFE701985E
:1037200001688020C04308610198FFF72FFEFFE782
:10373000FFE7019800680069012109020840000ABA
:10374000002811D0FFE701980068C068C0B2C00926
:10375000002808D0FFE70198016820480861019817
:10376000FFF710FEFFE7FFE70198006800694021BE
:1037700008408009002813D0FFE701980068C0685E
:10378000402108408009002809D0FFE7019801681E
:103790004020C0430861019800F05EF8FFE7FFE7B2
:1037A000019800680069202108404009002813D0D2
:1037B000FFE701980068C068202108404009002800
:1037C00009D0FFE7019801682020C04308610198F3
:1037D000FFF7E0FDFFE7FFE702B080BDFFFEFFFF60
:1037E00081B0009001B0704781B0009001B0704787
:1037F00081B0009000981349884221D1FFE7124917
:103800000868401C0860114800788007C00F002835
:1038100015D1FFE70C480068002810D0FFE70A48E0
:1038200001680B4848430321C8410A49884206D829
:10383000FFE706490878022210430870FFE7FFE718
:1038400001B07047AC030020700100208804002004
:10385000D578E9263789410081B0009001B07047E2
:1038600082B001906846018002B0704781B000903C
:1038700001B0704781B0009001B0704781B00090F6
:1038800001B0704781B0009001B0704780B5A8B01A
:103890000F900F980068C0690E900F98006800683C
:1038A0000D900F98006880680C900E98F2490840BF
:1038B0000B900B9800281DD1FFE70EA8007880061A
:1038C000002816D5FFE70DA800788006002806D44A
:1038D000FFE70CA8C078C00600280AD5FFE70F98BC
:1038E000006F002804D0FFE70F98016F8847FFE7BB
:1038F0007FE2FFE70B98002800D1FFE00C98DF493A
:10390000084205D1FFE70D98DD49084200D1F5E0F6
:103910000EA80078C007002810D0FFE70DA8407857
:10392000C00700280AD0FFE70F9800680123036250
:103930000F998C22885818438850FFE70EA800780A
:103940008007002811D5FFE70CA80078C0070028E1
:103950000BD0FFE70F980168022008620F998C22B4
:103960008858042318438850FFE70EA800784007C2
:10397000002811D5FFE70CA80078C00700280BD05D
:10398000FFE70F980168042008620F998C2288587D
:10399000022318438850FFE70EA80078000700288C
:1039A00015D5FFE70DA800788006002805D4FFE7AD
:1039B0000C98B24908420AD0FFE70F980068082324
:1039C00003620F998C22885818438850FFE70EA88D
:1039D00040780007002812D5FFE70DA8C0784007FF
:1039E00000280CD5FFE70F9801680120C00208628B
:1039F0000F998C228858202318438850FFE70F988E
:103A00008C214058002878D0FFE70EA80078800667
:103A1000002816D5FFE70DA800788006002806D4F8
:103A2000FFE70CA8C078C00600280AD5FFE70F986A
:103A3000006F002804D0FFE70F98016F8847FFE769
:103A4000FFE70F988C2140580A900F980068806813
:103A500040210840402806D0FFE70AA80078282126
:103A6000084241D0FFE70F9802F056FA0F9800681D
:103A700080684006002832D5FFE7FFE7EFF31080AB
:103A800017901798099001202790279880F31088A5
:103A90000F980168886840229043886009982690B2
:103AA000269880F31088FFE70F98C06F002811D088
:103AB000FFE70F98C16FD14888630F98C06FFEF77A
:103AC00041F9002805D0FFE70F98C06F816B884748
:103AD000FFE703E00F98FFF7D5FEFFE703E00F983D
:103AE000FFF7D0FEFFE707E00F98FFF7CBFE0F9937
:103AF0008C2200208850FFE7FFE77AE10F98C06E24
:103B0000012800D014E10EA80078C006002800D4D7
:103B10000EE10DA80078C006002800D408E10F9837
:103B20000168102008620F9800688068400600282D
:103B300000D48FE00F98C06F0068416808A801802A
:103B40000088002800D184E008A800880F995C2232
:103B5000895A884200DB7CE008980F995E228852DF
:103B60000F98C06F006800688006002867D4FFE7E0
:103B7000FFE7EFF310801690169807900122259228
:103B8000259880F310880F98016808681202904306
:103B9000086007982490249880F31088FFE7FFE7D7
:103BA000EFF3108015901598069001222392239828
:103BB00080F310880F9801688868904388600698A1
:103BC0002290229880F31088FFE7FFE7EFF3108040
:103BD00014901498059001202190219880F310886A
:103BE0000F9801688868402290438860059820906B
:103BF000209880F31088FFE70F99882220208850B2
:103C00000F990020C866FFE7EFF310801390139818
:103C1000049001201F901F9880F310880F9801686E
:103C2000086810229043086004981E901E9880F344
:103C30001088FFE70F98C06FFEF724F8FFE70F9892
:103C40005C21415A5E22825A891A89B2FFF708FE26
:103C5000FFE7CEE00F9A5C20105A5E21525A801A7C
:103C600003AA10800F98405A002860D0FFE703A8ED
:103C7000008800285BD005E00F080000010000105C
:103C800020010004FFE7EFF31080129012980290D9
:103C900001201D901D9880F310880F980168086816
:103CA000092252019043086002981C901C9880F3EE
:103CB0001088FFE7FFE7EFF3108011901198019053
:103CC00001201B901B9880F310880F98016888686A
:103CD000494A1040886001981A901A9880F3108819
:103CE000FFE70F998822202088500F990020C8668E
:103CF0000F990867FFE7EFF310801090109800907D
:103D000001201990199880F310880F9801680868AD
:103D100010229043086000981890189880F310883B
:103D2000FFE70F9803A90988FFF79AFDFFE760E016
:103D30000EA88078C00600280FD5FFE70CA8807871
:103D40004006002809D5FFE70F980168012000050B
:103D500008620F98FFF792FD4BE00EA8007800066E
:103D6000002816D5FFE70DA800780006002806D425
:103D7000FFE70CA88078000600280AD5FFE70F9817
:103D8000406F002804D0FFE70F98416F8847FFE796
:103D90002FE00EA80078400600280AD5FFE70DA8FE
:103DA00000784006002804D5FFE70F9802F010F9CC
:103DB0001FE00EA88078000600280AD5FFE70DA8AE
:103DC000C0784006002804D5FFE70F98FFF752FDA2
:103DD0000FE00EA8C078C00700280AD0FFE70DA8A2
:103DE000C0780006002804D5FFE70F98FFF73EFDD6
:103DF000FFE728B080BDC046FEFFFFEFF55E00087C
:103E000080B582B000900098002804D1FFE701A996
:103E1000012008704AE000988069002801D0FFE77F
:103E200000E0FFE7009884214058002808D1FFE710
:103E30000099802200208854009800F03BF8FFE7AA
:103E40000099842224208850009801680868012283
:103E500090430860009802F0F5FC012804D1FFE7C8
:103E600001A90120087021E00098806A002804D090
:103E7000FFE7009801F03CFFFFE700980168486801
:103E80000922D202904348600098016888682A227B
:103E90009043886000980168086801221043086018
:103EA000009801F0D3FF01A90870FFE701A800788E
:103EB00002B080BD80B58AB00990002008900790BC
:103EC000069005900490099800687E4988422DD19B
:103ED000FFE7FFE716480268012189030A430260F1
:103EE0000068084003900398FFE7FFE71148026865
:103EF00002210A4302600068084002900298FFE72E
:103F0000C0200490022005900020009006900790A9
:103F1000094804A9FDF77CFF009A1B2001900321AA
:103F2000FEF7A0FC0198FEF792FCFFE70AB080BD07
:103F300040100240341002400004005080B588B0A8
:103F40000390029101A802800398882140582028FC
:103F500060D1FFE70298002805D0FFE701A800889C
:103F6000002804D1FFE704A90120087056E0039857
:103F7000806801210903884210D1FFE70398006996
:103F800000280BD1FFE702A80078C007002804D062
:103F9000FFE704A90120087040E0FFE7FFE703986E
:103FA0008021405C012804D1FFE704A902200870A9
:103FB00034E00399802201208854FFE7FFE703994A
:103FC0000020C8660398006840680002002818D5E1
:103FD000FFE7FFE7EFF310800590059800900122BE
:103FE0000792079880F31088039801680868920682
:103FF0001043086000980690069880F31088FFE749
:10400000FFE70398029901AA128802F083FD04A930
:10401000087003E004A902200870FFE704A80078F4
:1040200008B080BD81B000900098006825498842A2
:1040300046D1FFE724480088000400283FD4FFE76A
:10404000214800884004002817D5FFE71F48007862
:104050000A2804D0FFE71C49002008800CE01A4819
:1040600001880122D20311430180028818480240CE
:10407000184900208854FFE720E0144800780D28F4
:1040800007D1FFE7104908880122920310430880F6
:1040900013E00E4801780C4803880D4A13400D4A7E
:1040A000D1540188491C01800088C82804DBFFE73F
:1040B000054900200880FFE7FFE7FFE7FFE7FFE78C
:1040C00001B07047003801400403002006030020BF
:1040D000FF3F00003C02002081B0009001B070471B
:1040E000FFE7FEE780B582B0002001904A48FEF766
:1040F000A4F8FFE748483149C822FEF7E7FA00284C
:104100000BD0FFE70198401C019001980021C943A2
:10411000884201D9FFE700E0ECE702B080BDC0466D
:1041200080B582B03C48009022490160224941603C
:10413000BE2181600121C160002101614161816175
:10414000C1610162FEF796F8002806D0FFE7FDF78F
:1041500096FD01A90120087027E02F480021FDF7F6
:10416000C5FF002806D0FFE7FDF789FD01A9012062
:1041700008701AE028480021FEF703F8002806D04E
:10418000FFE7FDF77CFD01A9012008700DE0FFE7C6
:1041900021480A49C822FEF799FA002801D0FFE712
:1041A000F6E701A900200870FFE701A8007802B037
:1041B00080BDC046005800405B3D300074010020C7
:1041C000B0B58AB01C4615460391024603980E9B73
:1041D00008A90A8007AA108006A80580059404ACE7
:1041E0002380098812880388059824880A25029567
:1041F000019400900848FEF7D7F8002804D0FFE7A4
:1042000009A90120087003E009A900200870FFE750
:1042100009A800780AB0B0BD6003002080B582B064
:1042200001900198806A00900098806B002805D06A
:10423000FFE70098816B00208863FFE70098C06B60
:10424000002805D0FFE70098C16B00208863FFE7D6
:10425000009801F0ABF902B080BD83B0029001A8D4
:104260000180002100910088C007002812D0FFE7DC
:10427000009842210843009002984121405C282187
:104280000840282805D0FFE70098B0210843009097
:10429000FFE7FFE701A800888007002812D5FFE7A5
:1042A000009844210843009002984121405C282155
:1042B0000840282805D0FFE70098B0210843009067
:1042C000FFE7FFE701A800880004002805D5FFE705
:1042D0000098B82108430090FFE701A80088102843
:1042E00005D1FFE70098902108430090FFE701A85F
:1042F0000088202805D1FFE700982021084300907E
:10430000FFE701A80088402805D1FFE70098402179
:1043100008430090FFE7009A0298016808689043FC
:10432000086003B07047000083B0029001A80180CC
:10433000002000900298406B3349884206D0FFE786
:104340000298406B314988422AD1FFE701A80088D2
:104350000004002805D5FFE70098B8210843009025
:10436000FFE701A80088102805D1FFE700989021F9
:1043700008430090FFE701A80088202805D1FFE747
:104380000098602108430090FFE701A800884028BA
:1043900005D1FFE70098402108430090FFE72BE09C
:1043A00001A800880004002805D5FFE70098B8217F
:1043B00008430090FFE701A80088C007002805D047
:1043C000FFE70098F22108430090FFE701A800886A
:1043D0008007002805D5FFE70098F42108430090E6
:1043E000FFE701A80088202805D1FFE700982021D9
:1043F00008430090FFE7FFE7009A02980168086809
:104400001043086003B07047FD4D0008E1500008FC
:1044100081B000900098006880690221084040083F
:10442000002805D0FFE70098016800208862FFE7B8
:10443000009800688069C007002807D1FFE700984E
:1044400001688869012210438861FFE701B0704765
:1044500080B586B00590049105984121405C2821E3
:10446000084028287CD1FFE7059800688069012171
:1044700009040840000C03A90870059800688069C9
:104480007F2149040840000C02A9088005980068B3
:1044900080683A49084001A9088005980068C0680A
:1044A000FE210840694608800598C068022843D16B
:1044B000FFE702A80088062210400199C9091140AF
:1044C000884222D1FFE7019802A908800599886CEB
:1044D000401C88640598806C022815D1FFE7059977
:1044E00000208864059801680820C861FFE70599E5
:1044F000402200208854FFE7059803A9097802AA02
:104500001288FDF792FEFFE715E0009802A90880E7
:1045100005980121C903FFF7A0FEFFE70599402296
:1045200000208854FFE7059803A9097802AA128899
:10453000FDF77BFEFFE712E005980121C903FFF7B5
:104540008CFEFFE70599402200208854FFE705987C
:1045500003A9097802AA1288FDF767FEFFE70AE0BF
:10456000059801680820C861FFE7059940220020EE
:104570008854FFE7FFE706B080BDC046FF03000098
:1045800080B584B00390029103984121415C01A859
:104590000170039A42230021D154039BF34ADA624B
:1045A000039A5185029B039A516C19435164007818
:1045B00028280AD0FFE701A80078292805D0FFE7BE
:1045C00001A800782A280CD1FFE703980321FFF700
:1045D00044FE039941222820885403994E48486399
:1045E00012E003987449FFF738FE03984121405CBC
:1045F000602805D0FFE70399412220208854FFE777
:10460000039900204863FFE70398006B009003982C
:10461000806B00283AD0FFE70098112804D0FFE70C
:104620000098212832D1FFE7039800680068400411
:10463000002808D5FFE70398016808680122920363
:1046400090430860FFE70398806BFDF7D9FB0128D2
:1046500017D0FFE70398816B30488863FFE7039921
:10466000402200208854FFE70398806BFDF76AFB27
:10467000002805D0FFE70398806B816B8847FFE730
:1046800003E0039800F092FFFFE743E00398C06B5C
:1046900000283AD0FFE70098122804D0FFE70098DE
:1046A000222832D1FFE70398006800680004002840
:1046B00008D5FFE70398016808680122D2039043F8
:1046C0000860FFE70398C06BFDF79AFB012817D03D
:1046D000FFE70398C16B11488863FFE70399402205
:1046E00000208854FFE70398C06BFDF72BFB0028E0
:1046F00005D0FFE70398C06B816B8847FFE703E0B5
:10470000039800F053FFFFE703E0039800F04EFF2B
:10471000FFE7FFE704B080BD155300081D42000805
:1047200080B582B00190009101999048C8620199CA
:1047300000200863019A41232021D154019942228B
:10474000885401994863684600780421084080082D
:1047500000281ED0FFE701980068406A0199496A65
:1047600008700199486A401C48620198008D002831
:104770000ED0FFE70199088D401E08850199488DEC
:10478000401E48850199486C042210434864FFE7A5
:10479000FFE701980849FFF760FD019801681020C4
:1047A000C861FFE70199402200208854FFE7019883
:1047B000FDF7E6FD02B080BD0380000080B586B045
:1047C0000590049104980290059801682020C86122
:1047D00005984121405C212808D1FFE70598012177
:1047E000FFF73BFD0599112008630FE00598412173
:1047F000405C222808D1FFE705980221FFF72DFD34
:1048000005991220086300E0FFE7FFE705980168BB
:104810004868554A1040486005990020486305994A
:104820005248C86202A800781021084000090028F8
:104830000AD0FFE7059801681020C8610599486C07
:10484000042210434864FFE705984121405C60283A
:104850000FD1FFE702A80078042108408008002853
:1048600007D0FFE705980068406AC0B20190019840
:10487000FFE70598FFF7CCFD0598406C039005987D
:104880004121405C602804D0FFE70398002805D050
:10489000FFE70598416CFFF773FE62E00598412140
:1048A000405C21282AD1FFE7059941222020885425
:1048B00005990020086305984221405C40280ED1EC
:1048C000FFE70599422200208854FFE7059940221E
:1048D00000208854FFE70598FDF762FD0DE005997B
:1048E000422200208854FFE7059940220020885486
:1048F000FFE70598FDF74CFDFFE731E00598412102
:10490000405C22282AD1FFE70599412220208854C3
:1049100005990020086305984221405C40280ED18B
:10492000FFE70599422200208854FFE705994022BD
:1049300000208854FFE70598FDF72EFD0DE005994E
:10494000422200208854FFE7059940220020885425
:10495000FFE70598FDF718FDFFE700E0FFE7FFE739
:10496000FFE706B080BDC04600E800FE0000FFFF84
:1049700080B582B0019001994222002088540198AC
:104980004121405C212818D1FFE7019941222020D4
:104990008854019911200863019900204863019807
:1049A0000121FFF75AFCFFE70199402200208854BB
:1049B000FFE70198FDF7ECFC17E001994122202068
:1049C00088540199122008630199002048630198D6
:1049D0000221FFF742FCFFE70199402200208854A2
:1049E000FFE70198FDF7D0FCFFE702B080BD0000B3
:1049F00080B586B005900491059800680068039022
:104A00000498029005984121415C01A80170059924
:104A10000A682021D1610078212805D0FFE701A88C
:104A20000078292808D1FFE705987C49FFF715FC95
:104A300005992120086313E001A80078222805D0F9
:104A4000FFE701A800782A2808D1FFE705987249F6
:104A5000FFF703FC05992220086300E0FFE7FFE76A
:104A60000598016848680122D20310434860059800
:104A700001684868E04A104048600598FFF7C8FCA4
:104A800003A84078402108408009002814D0FFE79F
:104A90000598016808680122920390430860059810
:104AA000806B002807D0FFE70598806B006840689E
:104AB00005994885FFE71BE003A84078C009002856
:104AC00014D0FFE70598016808680122D2039043DB
:104AD00008600598C06B002807D0FFE70598C06BF9
:104AE0000068406805994885FFE700E0FFE7FFE7B9
:104AF00002A8007804210840800800281DD0FFE7A4
:104B0000029804218843029005980068406A05993C
:104B1000496A08700599486A401C48620598008DEA
:104B2000002809D0FFE70599088D401E08850599E2
:104B3000488D401E4885FFE7FFE70598408D002817
:104B400006D0FFE70599486C042210434864FFE74C
:104B50000599422200208854059948630598406CC5
:104B6000002810D0FFE70598416CFFF709FD059874
:104B70004121405C282805D1FFE705980299FFF7FD
:104B8000CFFDFFE746E00598C06A2549884217D067
:104B9000FFE7059800F046F805992148C862059995
:104BA000412220208854059900200863FFE70599D9
:104BB000402200208854FFE70598FDF7E1FB28E03C
:104BC00005984121405C222811D1FFE70599412237
:104BD00020208854059900200863FFE705994022AA
:104BE00000208854FFE70598FDF758FD10E005996F
:104BF000412220208854059900200863FFE7059989
:104C0000402200208854FFE70598FDF75BFDFFE791
:104C1000FFE7FFE706B080BD0280000001800000D2
:104C20000000FFFF80B582B0019001980068006825
:104C30000090019942220020885468464078402123
:104C400008408009002808D0FFE70198016808683B
:104C500001229203904308600FE068464078C00943
:104C6000002808D0FFE70198016808680122D203F4
:104C70009043086000E0FFE7FFE701984121405CB6
:104C8000292815D1FFE7019941222820885401994C
:104C90002120086301980121FFF7DFFAFFE701995E
:104CA000402200208854FFE70198FDF70BFD1CE02F
:104CB00001984121405C2A2815D1FFE70199412242
:104CC0002820885401992220086301980221FFF7C7
:104CD000C4FAFFE70199402200208854FFE70198B9
:104CE000FDF7DCFC00E0FFE7FFE702B080BD00005D
:104CF00080B586B0049003910292049800688069A0
:104D000010210840000901286DD1FFE704980068D0
:104D10004068012149060840884208D0FFE704980E
:104D2000016848680122920310434860FFE7FFE7EB
:104D3000049800688069202108404009002829D192
:104D4000FFE70398401C002823D0FFE7FDF7C8F9D0
:104D50000299401A0399884204D8FFE70398002873
:104D600016D1FFE7049A516C202001435164049945
:104D7000412288540499422200208854FFE7049974
:104D8000402200208854FFE705A9012008702EE08A
:104D9000FFE7CDE7049801681020C8610498016816
:104DA00020200190C8610498FFF732FB0198049914
:104DB0000A685168104B19405160049A516C0423E1
:104DC00019435164049941228854049942220020D5
:104DD0008854FFE70499402200208854FFE705A982
:104DE0000120087003E005A900200870FFE705A86E
:104DF000007806B080BDC04600E800FE10B588B05F
:104E0000069005910492FFE706984021405C012836
:104E100004D1FFE707A902200870FBE006994022B1
:104E200001208854FFE7FFE705A80078102108401B
:104E30000009002819D0FFE704A8007810210840D5
:104E40000009002811D0FFE7069801681020C8610A
:104E50000699486C04221043486406982021FFF705
:104E600063FA0698FFF7D4FACAE005A80078C009EB
:104E7000002874D0FFE704A800784021084080098A
:104E800000286CD0FFE7069801680868402290432C
:104E900008600698408D00284DD0FFE7069800680E
:104EA00040685F49084003A908800698408D000AC1
:104EB000002807D0FFE70699FF200885012000069B
:104EC000029012E00698408D069908850698C06AFF
:104ED0005249884204D0FFE70698C06A029003E076
:104EE000012040060290FFE7FFE7069803A9098822
:104EF0002822825C029B0024009400F02FFB06997C
:104F00000A8D488D801A488506984121405C2228E8
:104F100008D1FFE70698016808680122D203104310
:104F2000086007E0069801680868012292031043B0
:104F30000860FFE712E00698006840680121490612
:104F40000840884204D0FFE70698FFF711FD04E00F
:104F500006984021FFF714FBFFE7FFE74FE005A8A5
:104F60000078402108408009002830D0FFE704A8DD
:104F70000078402108408009002828D0FFE70698E3
:104F8000408D00281DD1FFE7069800684068012188
:104F900049060840884213D0FFE70698C06ADC49FA
:104FA000884208D1FFE70698016848680122920309
:104FB0001043486003E00698FFF7DAFCFFE7FFE7DD
:104FC00004E006984021FFF7DBFAFFE716E005A8AA
:104FD000007820210840400900280DD0FFE704A8F0
:104FE0000078202108404009002805D0FFE70698F6
:104FF0000599FFF7E3FB00E0FFE7FFE7FFE7FFE7C7
:10500000FFE70699402200208854FFE707A9002007
:105010000870FFE707A8007808B010BD0000FFFF88
:10502000FF03000010B588B00291014602980B9C66
:105030000A9C069105A9088004A8028003AA13808F
:10504000069809881278254B0093002300F086FA11
:1050500006980A990B9A00F05FFB002804D0FFE73E
:1050600007A90120087034E003A80088012806D1B0
:10507000FFE704A8007806990968886216E004A88A
:10508000407806990968886206980A990B9A00F098
:1050900043FB002804D0FFE707A90120087018E0AF
:1050A00004A80078069909688862FFE706980A9BB9
:1050B0000B9900914021002200F0A1FA002804D0B1
:1050C000FFE707A90120087003E007A90020087086
:1050D000FFE707A8007808B010BDC0460020008098
:1050E00080B588B00690059104920698C06A039036
:1050F00000200290FFE706984021405C012804D17F
:10510000FFE707A902200870FEE00699402201206F
:105110008854FFE7FFE705A80078202108404009F0
:1051200000280DD0FFE704A800782021084040099E
:10513000002805D0FFE706980599FFF759FCFFE71F
:1051400005A80078102108400009002800D1BAE025
:1051500004A80078102108400009002800D1B2E01E
:1051600004A84078402108408009002806D1FFE7C4
:1051700004A84078C009002800D19EE00698C06BC2
:10518000002812D0FFE704A84078C00900280BD0FF
:10519000FFE70698C06B00684068002803D1FFE76E
:1051A00001200290FFE7FFE7FFE70698806B0028E9
:1051B00014D0FFE704A84078402108408009002867
:1051C0000BD0FFE70698806B00684068002803D189
:1051D000FFE701200290FFE7FFE7FFE702980128C1
:1051E0002ED1FFE706984121405C28280BD1FFE72C
:1051F000039801214906884205D1FFE706980599E1
:10520000FFF78EFA1BE006984121405C292810D157
:10521000FFE70398D04988420BD0FFE70698016862
:105220001020C8610698FFF7F3F80698FFF7FAFC1C
:1052300004E0069801681020C861FFE7FFE73BE043
:10524000069801681020C8610699486C0422104332
:10525000486406984121405C01A908700398002821
:1052600006D0FFE7039801210906884223D1FFE712
:1052700001A80078212805D0FFE701A80078292897
:1052800004D1FFE70699212008630FE001A8007808
:10529000222805D0FFE701A800782A2804D1FFE7DB
:1052A00006992220086300E0FFE7FFE70698416CBB
:1052B000FFF766F9FFE7FFE704E0069801681020B2
:1052C000C861FFE716E005A8007808210840C0087B
:1052D00000280DD0FFE704A8007808210840C00886
:1052E000002805D0FFE706980599FFF7B1F800E020
:1052F000FFE7FFE7FFE70699402200208854FFE719
:1053000007A900200870FFE707A8007808B080BD53
:105310000000FFFF80B586B00490039102920498CC
:10532000C06A019003980090FFE704984021405C18
:10533000012804D1FFE705A90220087008E10499BB
:10534000402201208854FFE7FFE7684600782021CB
:105350000840400900280DD0FFE702A8007820216E
:1053600008404009002805D0FFE704980099FFF79E
:105370003FFBFFE76846007810210840000900283D
:1053800055D0FFE702A80078102108400009002846
:105390004DD0FFE70498408D00282ED1FFE70498F8
:1053A0004121405C28280BD1FFE7019801214906E3
:1053B000884205D1FFE704980099FFF7B1F91BE097
:1053C00004984121405C292810D1FFE701986249E7
:1053D00088420BD0FFE7049801681020C861049848
:1053E000FFF716F80498FFF71DFC04E00498016825
:1053F0001020C861FFE7FFE718E00498016810205B
:10540000C8610499486C042210434864019800283C
:1054100006D0FFE7019801210906884205D1FFE780
:105420000498416CFFF7ACF8FFE7FFE786E06846B9
:10543000007804210840800800282FD0FFE702A848
:105440000078042108408008002827D0FFE704984E
:10545000408D002813D0FFE704980068406A049943
:10546000496A08700499486A401C48620499088D8A
:10547000401E08850499488D401E4885FFE7049822
:10548000408D002809D1FFE701983349884204D0B4
:10549000FFE70498FFF7C6FBFFE74EE06846007899
:1054A00008210840C00800280DD0FFE702A80078B6
:1054B00008210840C008002805D0FFE7049800999B
:1054C000FEF7C6FF38E06846007802210840400831
:1054D00000282FD0FFE702A80078022108404008EA
:1054E000002827D0FFE70498408D002812D0FFE75E
:1054F0000499486A0078096888620499486A401CDF
:1055000048620499488D401E48850499088D401EC4
:1055100008850EE0019801210906884204D0FFE7C2
:105520000198002804D1FFE70498FFF77BFBFFE711
:10553000FFE700E0FFE7FFE7FFE7FFE7FFE704998A
:10554000402200208854FFE705A900200870FFE7EB
:1055500005A8007806B080BD0000FFFF10B585B03B
:1055600000930B4601460098079C049103A90B8009
:1055700002AB1A700190049800684068079A540DB5
:10558000A043084C20400988074C21401B781B048D
:10559000C918019B194311430843049909684860DD
:1055A00005B010BD009C00FCFF03000080B582B078
:1055B000019001984121405C602811D1FFE70199D9
:1055C000412220208854019900200863FFE70199B7
:1055D000402200208854FFE70198FCF722FE0CE0EF
:1055E000019900200863FFE70199402200208854B8
:1055F000FFE70198FCF739FEFFE702B080BD10B568
:1056000086B0089C0490039102A802700193FFE702
:1056100004980068806903990840401A4142484153
:1056200002A90978884229D1FFE70198401C002887
:1056300023D0FFE7FCF754FD0899401A01998842EE
:1056400004D8FFE70198002816D1FFE7049A516CAF
:105650002020014351640499412288540499422234
:1056600000208854FFE70499402200208854FFE777
:1056700005A90120087005E0FFE7C9E705A900209A
:105680000870FFE705A8007806B010BD80B584B0AB
:10569000029001910092FFE7029800688069202142
:1056A0000840400900282FD1FFE702980199009A8D
:1056B000FFF71EFB002804D0FFE703A901200870B4
:1056C00026E0FCF70DFD0099401A0199884204D8A4
:1056D000FFE70198002816D1FFE7029A516C2020BD
:1056E00001435164029941228854029942220020C8
:1056F0008854FFE70299402200208854FFE703A95D
:105700000120087004E0C7E703A900200870FFE744
:1057100003A8007804B080BD80B584B002900191E8
:105720000092FFE702980068806902210840400863
:10573000002835D1FFE702980199009AFFF7D8FABF
:10574000002804D0FFE703A9012008702CE001988D
:10575000401C002823D0FFE7FCF7C2FC0099401A48
:105760000199884204D8FFE70198002816D1FFE785
:10577000029A516C202001435164029941228854BD
:105780000299422200208854FFE70299402200201B
:105790008854FFE703A90120087005E0FFE7C1E78F
:1057A00003A900200870FFE703A8007804B080BDBB
:1057B00002480068072109030840704708100240AA
:1057C000FFE7FEE770477047A249087801221043BF
:1057D00008709F490878402210430870087880229A
:1057E000104308709D490878FE2210400870087820
:1057F000FD22104008700878FB22104008700878DD
:10580000F722104008700878EF22104008700878DE
:10581000DF22104008700878BF2210400870087816
:105820007F221040087000207047C04680B58AB0C3
:10583000002009900890079006900590012106919C
:1058400007900890FFE7FFE73248026801210A430A
:1058500002600068084004900498FFE7FFE77F209B
:1058600005900520000705A9FCF7D2FAFFE7FFE73E
:105870002848026801210A4302600068084003903A
:105880000398FFE7FFE7802005900520000705A9A2
:10589000FCF7BEFAFFE7FFE71E48026801210A4352
:1058A00002600068084002900298FFE7FFE70120CD
:1058B000000205900520000705A9FCF7A9FAFFE7FB
:1058C000FFE71448026804210A43026000680840A8
:1058D00001900198FFE7FFE70120800305900E4843
:1058E00005A9FCF795FAFFE7FFE70A4802680421DB
:1058F0000A4302600068084000900098FFE7FFE755
:105900000120C0030590044805A9FCF781FA002096
:105910000AB080BD341002400008005080B584B049
:1059200002A900200870FFE702A8017800203129B1
:10593000019006DCFFE7FFF779FF411E88410190E7
:10594000FFE70198C007002805D0FFE70298401C38
:1059500002A90870E8E702A80078322804DBFFE714
:1059600003A90120087024E0FFE702A801780020C5
:105970003129009006DCFFE700F01FF8411E884146
:105980000090FFE70098C007002805D0FFE70298C5
:10599000401C02A90870E8E702A80078322804DB5E
:1059A000FFE703A90120087003E003A900200870A5
:1059B000FFE703A8007804B080BD80B5FFF704FFBF
:1059C00080BD000084B0024602A8027001AA1170D6
:1059D0000078032804DBFFE703A90120087032E008
:1059E00001A800780A2804DBFFE703A9012008705A
:1059F00029E002A800780090002808D0FFE700986E
:105A000001280AD0FFE7009802280CD011E01149C4
:105A10000878FE22104008700BE00D490878BF227C
:105A20001040087005E00A4908787F22104008708D
:105A3000FFE701A801780848405C0849087003A9FD
:105A400000200870FFE703A8007804B07047C04644
:105A50001508005015000050F8740008140000509C
:105A600080B58CB003460AA8037009AB198008A959
:105A70000A700078032804DBFFE70BA901200870F7
:105A800065E009A800887D21C900884204DBFFE7A2
:105A90000BA9012008705AE008A80078042804DB4C
:105AA000FFE70BA90120087051E007A9002008704A
:105AB000FFE707A8007808A90978884243DAFFE7DA
:105AC0000AA8007807A909784018032804DBFFE733
:105AD0000BA9012008703AE009A80088009008A8E6
